:020000040800F2
:10000000A0080020C502000851300008F9240008AB
:100010004D3000089D0D0008C5510008000000008B
:100020000000000000000000000000006150000817
:10003000A10D0008000000005530000865500008C0
:10004000DF020008DF020008DF020008DF0200080C
:10005000DF020008DF020008DF020008DF020008FC
:10006000DF020008DF020008DF020008DF020008EC
:10007000DF020008DF020008DF020008DF020008DC
:10008000DF02000800000000DF020008DF020008B5
:10009000DF020008DF020008DF020008DF020008BC
:1000A000DF020008DF020008DF020008DF020008AC
:1000B0007D50000889500008DF020008DF020008B8
:1000C000DF020008DF020008DF020008DF0200088C
:1000D000DF020008DF020008DF020008DF0200087C
:1000E000DF020008DF020008DF020008DF0200086C
:1000F000DF020008DF020008DF0200080000000045
:1001000000000000DF02000800000000DF0200081D
:10011000DF0200080000000095500008DF02000820
:10012000DF020008DF020008DF020008DF0200082B
:10013000DF0200080000000000000000DF020008ED
:10014000DF020008DF0200080000000000000000DD
:10015000000000000000000000000000000000009F
:10016000000000000000000000000000DF020008A6
:10017000DF02000800000000000000000000000096
:1001800000000000DF020008000000000000000086
:10019000000000000000000000000000000000005F
:1001A0000000000000000000DF020008DF0200087D
:1001B000DF020008DF020008DF0200080000000084
:1001C00000000000DF020008000000000000000046
:1001D000DF020008DF02000800F002F800F062F819
:1001E00014A696E8000CB244B344DA4501D100F0FD
:1001F00059F8BAE80F000FA696E83000A5EB040501
:1002000004EB0607AAEB0704A7F101074FEA15154F
:100210004FEA3414A4F10104AC4201D300F042F8D7
:1002200013F0010F18BFFB1A43F0010300F001F8AF
:10023000DBE71847E07B0000007C0000103A24BF99
:1002400078C878C1FAD8520724BF30C830C144BF3B
:1002500004680C6070470000704700000023002411
:1002600000250026103A28BF78C1FBD8520728BFC6
:1002700030C148BF0B607047662906F021846429AD
:1002800000F05480002070471FB506F00CFC00F011
:100290000FFC04000020002106F0CEF9E0601FBD35
:1002A00010B510BD00F004FD1146FFF7EDFF05F09D
:1002B000F5F800F022FD03B4FFF7F2FF03BC00F0F5
:1002C00065FD00000948804709480047FEE7FEE752
:1002D000FEE7FEE7FEE7FEE7FEE7FEE7FEE7FEE7F6
:1002E00004480549054A064B70470000695000085C
:1002F000D9010008A0020020A0080020A0040020CE
:10030000A00400200FB41CB5074B06AA7B44694625
:100310000090059800F081FB0020694600F090FBFA
:100320001CBC5DF814FB0000310700002DE9F04112
:100330000646002410687529314616A510D0AFF383
:100340000080002802DA404213A507E031688A07DE
:1003500001D512A502E0490704D511A5012401E049
:10036000AFF3008000210A2206F1240709E0B0FB68
:10037000F2FCB0FBF2F302FB1C003030785418465C
:10038000491C0028F3D123462A463046BDE8F041F7
:1003900000F0D7B8000000002D0000002B00000086
:1003A000200000002DE9F0474FF0000A894604467E
:1003B000C0F820A02046E1688847002876D025288C
:1003C00006D0D4E901219047206A401C2062F1E761
:1003D000E168204600258847C4F81CA0064600278F
:1003E000C4F818A02A2E09D0304606F01DF938B3FB
:1003F00004EB8708303EC8F8186019E059F8041B70
:10040000204604EB87029161E1688847012F064688
:1004100018D1E069002820DA25F020051DE0D8F881
:10042000180000EB800006EB40003038C8F81800D8
:100430002046E1688847064606F0F6F80028EED127
:10044000012F0AD02E2E08D12046E16888477F1C54
:100450000646022F45F02005C4DBA069002803DA18
:10046000404245F00105A061E80701D025F01005E4
:10047000B6B1A6F14100192802D8203645F400652E
:100480004A463146204625604D46FFF7F5FE58B1F5
:10049000012806D0ED1D25F0070000F1080989E7C5
:1004A00004E005F1040985E730468AE7206ABDE8E3
:1004B000F087032A40F2308010F0030C00F0158022
:1004C00011F8013BBCF1020F624498BF11F801CB57
:1004D00000F8013B38BF11F8013BA2F1040298BFBC
:1004E00000F801CB38BF00F8013B11F0030300F026
:1004F000AC82083AC0F0088051F8043B083A51F841
:1005000004CBA0E80810F5E7121D5CBF51F8043BCE
:1005100040F8043BAFF30080D20724BF11F8013B41
:1005200011F801CB48BF11F8012B24BF00F8013BA3
:1005300000F801CB48BF00F8012B704770477047A7
:1005400070472DE9F0470D4699469246044600F162
:1005500024080168880604D5E06921F010012160B3
:1005600000E00120A84201DD471B00E00027A1694F
:100570007A1902EB0900081AA0612078C00602D49B
:100580002046AFF30080002608E0D4E901211AF8E4
:1005900006009047206A401C761C20624E45F4DB22
:1005A0002078C0060AD52046AFF3008006E0D4E9E3
:1005B000012130209047206A401C2062381EA7F19C
:1005C0000107F4DC07E0D4E9012118F805009047A1
:1005D000206A401C2062281EA5F10105F3DC20469C
:1005E000AFF300802078000602D50220BDE8F08736
:1005F0000120FBE72DE9FF4F0C461E464FF0FF3769
:100600008BB0D2E90001DDF860800A908A46C1F320
:100610000A5505B93D46002108464FF00000BAF1E1
:10062000000F00F4400005DA00EB80004FF44001B9
:1006300001EA50004FEA9059B9F1010F00DDB946C7
:100640000A9850EA4A000ED044F61050A5F2FF3541
:1006500045432F14B8F1000F1ED07542291E1EDD30
:10066000C9F100021CE0B8F1010F4FF0000001D009
:10067000302103E0F24305E02154401CB042FBDB93
:1006800030460022002121540B99C1F80880C1E9AD
:1006900000200FB0BDE8F08FBD1B6D1CDEE74A46A1
:1006A00000DA694206A800F08DFA06AB93E807006D
:1006B00003AB83E8070050460A9905F0D5FB8DE8A7
:1006C0000700A0F500501F3800900398002D0ADDA8
:1006D00042F21F014A460844002303A903906846DA
:1006E00005F03EFE09E0A0F500504A461F38002301
:1006F00003A90390684605F048FE8DE80700000452
:10070000000C03D04FF0FF30410800E01046B8F174
:10071000000F03D00022009215461EE0751E05D47E
:1007200000F0CAF9303262556D1EF9D5B346012288
:10073000084302D000227F1C04E02078302801D139
:1007400000227F1E002A099784D01DE0112D07DAB0
:1007500000F0B2F9303262556D1C50EA0102F5D159
:10076000084302D00098C8B10EE00021681E05E0E1
:10077000235C625C63542254401E491C8142F7DBB7
:10078000AB46A81B401E0990002004F80B000B98F4
:10079000099AC0F80880C0E9002B7AE711264FF0CB
:1007A000000857E72DE9F04F88460446D21D22F095
:1007B000070191B0D1E90001CDE90A0105F01CFF64
:1007C00002460B98C00F01D02D2007E0206881075A
:1007D00001D52B2002E0202101EAC000032A099064
:1007E00001D0072A05DB03464146204600F0AAF95E
:1007F0000BE12078800601D5E06900E00620B8F121
:10080000650F814606D0B8F1660F18D0B8F1670FB2
:1008100070D131E00020B9F1110F009001DB1123FC
:1008200001E009F101030AAA01A90CA8FFF7E2FE01
:10083000DDE90C70002609F10105834647E001203F
:100840004B4600904FF000470AAA01A90CA8FFF7F9
:10085000D1FEDDE90DB00C995D46002610B909F115
:1008600001000D18B9EB050003D4C0F1FF3609F102
:100870000105A5EB09002BE0B9F1010F01DA4FF0FA
:1008800001090020B9F1110F0090484601DD112344
:1008900000E003460AAA01A90CA8FFF7ABFEDDE9B8
:1008A0000C704D4600268346207800070AD4AB45DD
:1008B00000DA5D4601A8012D04DD411911F8011C83
:1008C000302907D04F4502DA17F1040F04DA01206E
:1008D00082460FE06D1EEEE7002F02DCED1B3E446A
:1008E00003E0781CA84200DD7D1CB81B00F1010A62
:1008F0004FF000472078000703D4AA4501DB4FF0F2
:10090000FF3A0021B7F1004F0DF143088DF8431075
:1009100024D002202B23002F01DA7F422D230A212D
:10092000021EA0F1010000DC5FB197FBF1FC97FB18
:10093000F1F201FB1C7C17460CF1300C08F801CDDC
:10094000EEE7A8F1010003702188090501D54521D2
:1009500000E06521A0F1010800F8011C09980FA929
:10096000A1EB0807FF1D00B10120411901EBEA705E
:10097000A1693844081A401EA0612078C00602D43C
:100980002046AFF30080099828B1D4E901219047AF
:10099000206A401C20622078C00622D52046AFF392
:1009A00000801EE0002E04DBB34502DD01A8805D5F
:1009B00000E03020D4E901219047206A401C2062E9
:1009C000761CAAF101005FEA000A0AD100F070F873
:1009D000C0680168405CD4E901219047206A401C4E
:1009E0002062281EA5F10105DCDC07E0D4E9012125
:1009F00018F8010B9047206A401C2062381EA7F1AE
:100A00000107F3DC2046AFF30080032011B041E67C
:100A100001694A1C02610878704700B58FB0CDE9C2
:100A200001310021059105497944CDE903101146B2
:100A30006846FFF7B7FC0FB000BD0000E5FFFFFF01
:100A40000A6802F8010B0A60704710B5203AC0F03E
:100A50000B80B1E81850A0E81850B1E81850A0E891
:100A60001850203ABFF4F5AF5FEA027C24BFB1E82A
:100A70001850A0E8185044BF18C918C0BDE810406D
:100A80005FEA827C24BF51F8043B40F8043B08BF76
:100A90007047D20728BF31F8023B48BF11F8012B3D
:100AA00028BF20F8023B48BF00F8012B7047000028
:100AB000004870476000002030B5B0F10A0271F1C3
:100AC00000034FEA900E4EEA817EB0EB0E0061EB20
:100AD00091014FEA101E4EEA017E10EB0E0041EB31
:100AE00011114FEA102E4EEA016E10EB0E0041EB91
:100AF00011214FEA104E4EEA014E10EB0E0041EB71
:100B00001141401841F100014FEAD00040EA417024
:100B10004FEAD1014FEA810444EA907410EB80055A
:100B200044EB01046D1944EB0404521BA3414FF044
:100B3000000348BF0A3200D530BD401C41F100011E
:100B400030BD00002DE9F0411F4604460326016830
:100B5000072A01F4006004DB08B116A505E016A51C
:100B600003E008B115A500E015A521F010002060F4
:100B7000A069C01EA0610FB1401EA0612046AFF366
:100B800000804FB1D4E9012138469047206A401CCB
:100B90002062C01C206206E0206AFAE7D4E9012145
:100BA00015F8010B9047761EF8D22046AFF300806F
:100BB000BDE8F0814E414E006E616E00494E460028
:100BC000696E66002DE9F047814616468AB03548C1
:100BD00078440DC88DE80D0032487844801C03AC81
:100BE0000DC884E80D0041F69B300844372190FB86
:100BF000F1F290FBF1F5A5F1800501FB12041B3C1D
:100C000002D56442012000E00020DFF898A0804671
:100C10000027FA44AAF1BE0A0EE0E0070AD03246E5
:100C2000684607EB470101230AEB810105F0ADFBA4
:100C30008DE8070064107F1C002CEED1194F7F4413
:100C4000AE3F19E0E80715D007EB04100DF1180AC4
:100C500090E80E008AE80E00C068F04201D19819B1
:100C600008903246012306A903A805F08EFB03ABCA
:100C700083E807006D10641C002DE3D14FF00103E1
:100C800032466946B8F1000F03A802D005F068FBB0
:100C900001E005F07AFBC9E90001C9F808200AB0B3
:100CA000BDE8F0876C5F00000048704740000020FE
:100CB0007546FFF7F9FFAE4605006946534620F03A
:100CC0000700854618B020B5FFF70AFBBDE82040B5
:100CD0004FF000064FF000074FF000084FF0000BF8
:100CE000AC46ACE8C009ACE8C009ACE8C009ACE867
:100CF000C00921F007018D46704710B50446AFF3D7
:100D000000802046BDE81040FFF7D5BA0000000083
:100D100030B44FF0013C50F8042B51F8043BCCFAAE
:100D200052F4D51A20D1FCB950F8042B51F8043BE9
:100D3000CCFA52F4D51A17D1B4B950F8042B51F8A3
:100D4000043BCCFA52F4D51A0ED16CB950F8042BEE
:100D500051F8043BCCFA52F4D51A05D1002CDAD064
:100D600030BC4FF00000704729BAB1FA81F111F0A0
:100D70001801D1F120008440F2D1CA40CB4012F0DA
:100D8000FF0213F0FF0330BCD01A7047014918204E
:100D9000ABBEFEE72600020070470000FEE7000041
:100DA00070470000EFF3108072B600BFFEE700004E
:100DB000B0B5044600F0FEF8054640F20000C2F26D
:100DC00000004068611C18BF044400BF00F0F2F846
:100DD000401BA042FAD3B0BD2DE9F04F83B00C68A0
:100DE000002C00F0D78000F1200241F20045019272
:100DF00000F13847C4F6000506224FEAB726A8429C
:100E000008BF0522052E38BF4FEAB72200254FF054
:100E1000010A00274FF0000800920AE00C6808F170
:100E2000010834FA08F207F1020705F1040500F0A1
:100E3000B1800AFA08FE14EA0E0CEFD0D1F8049043
:100E4000B9F1120F00F29E800AFA09F414F0061F9D
:100E500000F0988084680322CE6802FA07FB24EA37
:100E60000B04BE403443846046684FEA191226EAF8
:100E70000E0602FA08F24FEA480A6FEA0B0B3243F9
:100E80004260C2688E6802EA0B0206FA0AF6324332
:100E900049F01006122EC26015D16FF00302019CBA
:100EA00002EA580205F01C030F2654F802E006FA85
:100EB00003F90E692EEA090E06FA03F343EA0E035C
:100EC000A350D1F80490026809F0030302EA0B0270
:100ED00003FA0AF31A435FEAC9034FF0010A0260FA
:100EE0009CD541F26003C4F202031A6840F2004E3E
:100EF00042F001021A601A68C4F2010E02F0010207
:100F00000292029A28F003024FF608497244CFF683
:100F1000FF7952F8093005F00C060F24B440A343C2
:100F2000009C04FA06F6334342F80930DEF800204C
:100F30004B6842EA0C06DC0358BF22EA0C06CEF8E6
:100F40000060DEF804209C0342EA0C0658BF22EA47
:100F50000C06CEF80460DEF80820DC0242EA0C063B
:100F600040F20C4458BF22EA0C06CEF80860C4F2E6
:100F7000010422689B0242EA0C0658BF22EA0C06D2
:100F800026604BE7032202FA07F46FEA040BBA4625
:100F900077E700BF03B0BDE8F08F000000690840AC
:100FA00018BF0120704700001823002A08BF28231B
:100FB000C150704740F29C20C2F2000000687047A8
:100FC00040F2000040F29C21C2F20000C2F2000197
:100FD00040680A68104408607047000080B503202C
:100FE00000F08CF8002000F009F800281CBF012058
:100FF00080BD00F02BF8002080BD0000B0B540F2AD
:101000000005C2F200056968F1B1044640F20C0027
:10101000C2F200004FF47A720068B2FBF1F1B0FB4B
:10102000F1F000F0F9FC01460F2C4FF001000AD856
:10103000002918BFB0BD4FF0FF302146002200F05C
:1010400031F800202C60B0BD0120B0BD82B041F26B
:101050005800C4F20200816841F00101816081689A
:1010600001F0010101910199016841F08051016095
:10107000006800F080500090009802B000F0D6B8F0
:10108000002848BF704700F01F01012202FA01F159
:101090001C2202EAD0004EF20012CEF20002815071
:1010A0007047000010B54EF60C5CCEF2000CDCF878
:1010B0000030C3F3022E8EF00704042C28BF042452
:1010C000BEF103034FF0FF3E0EFA04F438BF0023D5
:1010D000A14399400EFA03F39A43114300F00F0223
:1010E00000F160430901043A03F5644362440028B7
:1010F00048BF02F10C03197010BD00004EF60C51F0
:10110000CEF200010A684FF6FF031A4060F30A228C
:1011100042F0806040F0FD700860704747F21401B3
:10112000C4F2000151F8142CB0F5007F3CD0002827
:1011300074D1C86E02F4C06220F48070B2F5806F82
:10114000C8662FD151F8140C012262F34A2041F8ED
:10115000140C40F20C00C2F200000068322250432E
:101160004DF68362C4F21B32A0FB0202900C00BF5A
:101170000A68520511D5421C0FD00A6852050CD5D9
:1011800058B10A68520508D5012806D00A685205E8
:1011900003D50228A0F10400EAD10868400544BF45
:1011A0000320704700207047C86E02F4C06240F40C
:1011B0008070B2F5806FC866F4D151F8140C01222A
:1011C00062F34A2041F8140C40F20C00C2F2000015
:1011D0000068322250434DF68362C4F21B32A0FBFA
:1011E0000202900C0A68520511D5421C0FD00A6801
:1011F00052050CD558B10A68520508D5012806D009
:101200000A68520503D50228A0F10400EAD1086853
:10121000400544BF03207047C4E700BF022060F3CD
:101220004A2241F8142C00207047000047F20800C1
:10123000C4F20000016841F4804101607047000081
:101240002DE9F047002863D042F2000AC4F2020AF6
:101250000446DAF800000D4600F00F0088420CD278
:10126000DAF8000020F00F002843CAF80000DAF88E
:10127000000000F00F00A8424AD1216841F208089E
:10128000C807C4F2020803D1880740F1D080B5E056
:10129000606858F8082C022838D003283CD1920105
:1012A00036D5D8F80420D8F8043042F20046C3F30B
:1012B000031302F00302D8F804700133C0F2F406FD
:1012C000032A04BF43F20066C0F26E16B6FBF3F2C7
:1012D000D8F80430C7F306277A43C3F341630227E3
:1012E00007EB4303B2FBF3F24BF20043C0F2C443FB
:1012F0009A4259D9D8F8002012F0F00F49D0890746
:1013000052D5A16800294FD143E000BF910305D415
:101310000120BDE8F08700BF5105F9D5D8F80010CD
:1013200001F00C0104293FD0D8F8001001F00C01A5
:10133000082939D0D8F8001001F00C010C2933D15C
:10134000D8F80410D8F8042042F20047C2F3031280
:1013500001F00301D8F804300132C0F2F407032988
:1013600004BF43F20067C0F26E17B7FBF2F1D8F882
:101370000420C3F306235943C2F34162022303EB63
:101380004202B1FBF2F14BF20042C0F2C442914280
:101390000AD9D8F80010082262F307114FF00109AA
:1013A000C8F8001002E000BF4FF00009D8F80010A4
:1013B00021F003010843C8F80000FFF7FBFD0646D3
:1013C00041F28837D8F80000616800F00C00B0EBFB
:1013D000810F07D0FFF7EEFD801BB842F2D9032042
:1013E000BDE8F0872168880708D4B9F1000F1ED046
:1013F000D8F8000020F0F00017E000BF480705D53E
:10140000D8F8000040F4E060C8F80000080706D5EE
:10141000D8F80000072262F30D20C8F80000D8F8C1
:101420000000A26820F0F0001043C8F80000DAF8CD
:10143000000000F00F00A8421BD9DAF8000020F0ED
:101440000F002843CAF80000FFF7B4FD064641F23A
:10145000883700BFDAF8000000F00F00A84207D07C
:10146000FFF7A8FD801BB842F4D90320BDE8F08740
:101470002168480707D5D8F80000E26820F4E0604A
:101480001043C8F80000080708D5D8F80000216903
:1014900020F4605040EAC100C8F80000D8F800000D
:1014A00042F20041C0F2F40100F00C0004280846AA
:1014B0002DD0D8F8000000F00C00082843F200609E
:1014C000C0F26E1023D0D8F8002002F00C020C2AD3
:1014D0001CD1D8F80420D8F8043002F00302C3F37A
:1014E0000313D8F804700133032A08BF0146B1FB87
:1014F000F3F0D8F80410C7F30627C1F341610222C4
:10150000784302EB4101B0FBF1F000E00020D8F895
:10151000001046F65832C1F30311C0F60002515CC8
:1015200040F20C0201F01F0120FA01F140F200002C
:10153000C2F200000068C2F200021160BDE8F0478C
:10154000FFF75CBD002804BF012070472DE9F04182
:1015500082B00446007841F20006C007C4F20206D9
:101560001ED1207880073DD42078000764D42078ED
:10157000400700F187802078800600F1D980E0697B
:10158000002800F0C181B16801F00C010C2940F085
:101590002F81012840F08081012002B0BDE8F08158
:1015A000B06800F00C01F068082961D0032281F0D6
:1015B0000C0122EA00000844B0FA80F0400957D13B
:1015C00061683068B1F5803F07D0B1F5A02F40F0D9
:1015D000E18040F480203060306840F4803030603A
:1015E000E2E000BFB068F16800F00C00042871D0A0
:1015F00001F0030180F00C0081F002010844B0FA10
:1016000080F0400966D1E1683068002900F0DE8092
:1016100040F480703060FFF7CDFC0546306840052F
:1016200000F1FC80FFF7C6FC401B0228F6D903201E
:1016300002B0BDE8F08100BF6169D6F894000029CE
:1016400000F0928040F00100C6F89400FFF7B2FC71
:10165000054600BFD6F8940080073FF588AFFFF736
:10166000A9FC401B0228F5D9032002B0BDE8F08197
:10167000306880037FF575AF606800287FF471AF34
:101680003EE000BFB06D5FEAC00808D4B06D40F026
:101690008050B065B06D00F080500190019847F225
:1016A0000007C4F200073868C0052DD4386840F43C
:1016B00080703860FFF77EFC054600BF3868C005C3
:1016C00022D4FFF777FC401B0228F7D9032002B091
:1016D000BDE8F0813068400501D5E06880B17068F0
:1016E000216920F0FE4040EA0160706040F2000095
:1016F000C2F200000068FFF781FC00283FF434AF1D
:10170000012002B0BDE8F081A168D6F8900001295F
:1017100008D0052940F0A08040F00400C6F89000F1
:10172000D6F8900040F00100C6F89000A0E000BF9D
:10173000A169D6F89800002978D040F00100C6F8D9
:101740009800FFF737FC0546D6F8980080073FF56C
:1017500016AFFFF72FFC401B02284FF00300F3D910
:1017600002B0BDE8F08100BF20F00100C6F894008F
:10177000FFF720FC054600BFD6F8940080077FF5F0
:10178000F6AEFFF717FC401B0228F5D9032002B084
:10179000BDE8F08120F4803030603068002920F40A
:1017A0008020306000F0CE80FFF704FC054600BFCB
:1017B000306880033FF5D5AEFFF7FCFB401B642883
:1017C000F6D9032002B0BDE8F08100BF20F480709C
:1017D0003060FFF7EFFB0546306840057FF5C4AE8B
:1017E000FFF7E8FB401B02284FF00300F4D9B7E7EE
:1017F0003168022821F08071316040F08980FFF764
:10180000D9FB05463068800140F1C880FFF7D2FB64
:10181000401B02284FF00300F4D9A1E7706821694A
:1018200020F0FE4040EA016070609DE620F001007B
:10183000C6F89800FFF7BEFB054600BFD6F8980033
:1018400080077FF59CAEFFF7B5FB401B02284FF0E9
:101850000300F3D984E700BF20F00100C6F8900030
:10186000D6F89000002920F00400C6F8900079D046
:10187000FFF7A0FB054641F2883700BFD6F890007D
:10188000800700F18180FFF795FB401BB842F5D936
:10189000032002B0BDE8F081F068216A00F0030285
:1018A0008A427FF42DAF626A6FF00F0300F0F001FF
:1018B00003EB021291427FF423AFA16A00F4FE42CF
:1018C000B2EB012F7FF41CAFE16A00F07842B2EB7B
:1018D000C16F7FF415AF226B0023CFF6E07303EAEC
:1018E000025200F4C001A2F5001291427FF408AF49
:1018F000616B4FF07E4202EA016100F0C06001F1CD
:101900007E4188427FF4FCAE002002B0BDE8F08149
:10191000F0684FF6FF7120F00300F060F068CFF63A
:10192000EE610840F060FFF745FB04463068800137
:10193000EAD5FFF73FFB001B02284FF00300F5D963
:101940000EE700BFFFF736FB054600BF3068800397
:101950007FF507AEFFF72EFB401B64284FF0030016
:10196000F4D9FDE6FFF726FB054641F2883700BFB4
:10197000D6F89000800707D5FFF71CFB401BB84244
:101980004FF00300F4D9EBE6B8F1000F3FF5F3ADEB
:10199000B06D20F08050B065EDE500BFF06848F212
:1019A0000C01C0F29F1104F1200700EA010C8ECF58
:1019B0006FF00F00D4E90C5400EB02100022CFF6B8
:1019C000E07241EA0C0102EA05520843A2F5001256
:1019D0004FF07E4540EA032005EA0465104305F117
:1019E0007E4540EAC7602843F060306840F0807070
:1019F0003060F06840F08070F060FFF7DBFA04467A
:101A0000306880013FF580AFFFF7D4FA001B022851
:101A10004FF00300F4D9A3E6411E0020B0EB116F94
:101A20001CBF012070474EF21002CEF2000251603E
:101A30004EF62351CEF20001F0230B700721906087
:101A40001160704770470000704700007047000049
:101A500070470000704700007047000090F83C207D
:101A6000012A4FF002024AD070B580F83D2002688A
:101A700043F2004C54689368C4F2010C42F6004EE5
:101A80006245C4F2010E01D0724503D14D6824F4C1
:101A900070042C434FF68F75CFF6FF550E682C401F
:101AA00042F6FF35C4F201053443AA4254600FDC0C
:101AB000B2F1804F16D040F20046C4F20006B242A6
:101AC00010D040F60006C4F20006B2420AD00EE082
:101AD000724507D044F20006C4F20106B24201D0BA
:101AE000624504D1896823F0800319439160012184
:101AF000002280F83D1080F83C20BDE87040104680
:101B00007047000070470000002804BF01207047A4
:101B100010B5044690F83D0028B9002084F83C0038
:101B2000204600F023F8022084F83D002068211DA3
:101B300003F0B6FA012084F8480084F83E0084F8E7
:101B40003F0084F8400084F8410084F8420084F8A3
:101B5000430084F8440084F8450084F8460084F883
:101B6000470084F83D00002010BD000080B586B01D
:101B7000006841F20001C4F2000188424FF0000108
:101B80000591CDE90311CDE9011169D040F2004181
:101B9000C4F20001884231D0B0F1804F5ED141F2F1
:101BA0005800C4F20200016841F0010101600168BF
:101BB00001F001010091009950F80C1C41F0010165
:101BC00040F80C1C50F80C0C01A900F0010000902A
:101BD00000984FF400400190022002900020CDE9CF
:101BE0000300012005904FF09040FFF7F5F81C200E
:101BF00001210022FFF756FA1C202DE041F2580087
:101C0000C4F20200016841F002010160016801F0C4
:101C100002010091009950F80C1C41F0020140F8BB
:101C20000C1C50F80C0C002100F0020000900098F1
:101C30001020019002200290059040F20040CDE972
:101C40000311C4F6000001A9FFF7C6F81D20012109
:101C50000022FFF727FA1D20FFF712FA06B080BD19
:101C600041F25800C4F202000168002241F0100164
:101C700001600068012100F01000009000983620FB
:101C8000FFF710FA362006B0BDE88040FFF7F8B93C
:101C900090F83D1001291DD1022180F83D10016806
:101CA00042F6FF32C868C4F20102914240F00100DE
:101CB000C86011DCB1F1804F20D040F20040C4F286
:101CC000000081421AD040F60000C4F200008142B8
:101CD00014D020E00120704742F60040C4F2010019
:101CE00081420BD044F20000C4F20100814205D0D1
:101CF00043F20040C4F2010081420CD188680722FF
:101D0000C0F201020240062A4FF00000E3D0B2F513
:101D1000803F08BF7047086840F00100086000205D
:101D20007047000090F83C20012A4FF0020200F0BA
:101D3000A38080B580F83D20D0F800C08822DCF870
:101D40000830CFF6CE721A40CCF808200B686F2B03
:101D50002ADC2F2B3ADD4F2B4ADC302B78D0402B5E
:101D600040F08280D1F804E0C968DCF82030DCF86B
:101D7000202022F00102CCF82020DCF8182022F0EC
:101D8000F00242EA011123F00A0242EA0E02CCF804
:101D90001810CCF82020DCF808104FF68872CFF627
:101DA000CF72114047315DE01F22C0F21002934212
:101DB00014DD3F21C0F210018B423FDC2021C0F234
:101DC00010018B4244D030213EE000BF002B3FD0B9
:101DD000102B3DD0202B3BD046E000BF702B6FD0A6
:101DE000B3F5005F00F08080B3F1101F30D03BE00E
:101DF000502B43D0602B37D1D1F804E0C968DCF810
:101E0000203023F01003CCF82030DCF81830DCF858
:101E1000202023F4704322F0A00243EA013142EA79
:101E20000E12CCF81810CCF82020DCF808104FF671
:101E30008872CFF6CF721140673113E04021C0F2B3
:101E400010018B4204D07021C0F210018B420BD1E3
:101E5000DCF808104FF68872CFF6CF7211401943A4
:101E600041F00701CCF808100121002280F83D1054
:101E700080F83C20BDE8804010467047D1F804E06F
:101E8000C968DCF82030DCF8202022F00102CCF810
:101E90002020DCF8182022F0F00242EA011123F0A1
:101EA0000A0242EA0E02CCF81810CCF82020DCF826
:101EB00008104FF68872CFF6CF7211405731D1E734
:101EC000D1E901E3C968DCF8082043EA0E0322F4F3
:101ED0007F4243EA01211143CCF80810DCF80810D6
:101EE00041F07701BEE700BFD1E901E3C968DCF842
:101EF000082043EA0E0322F47F4243EA0121114302
:101F0000CCF80810DCF8081041F48041AAE7000082
:101F100040F2B812C2F200022421904240F2FC02C8
:101F2000C4F20001C2F200020CD040F20423C2F25B
:101F30000003984218BF704701F5806102F10C0060
:101F400002E000BF02F108000A6844F24023C0F238
:101F50000F03B3FBF2F240F21403C2F200035B6919
:101F60001A440260002008607047000090F83C307E
:101F7000012B04BF02207047F0B50368D1E900C40B
:101F8000D1F80CE01D6A082A38D0042A1ED0002A95
:101F90004ED125F001021A621A4642F6FF3752F876
:101FA000186F1D6AC4F20107BB4261DCB3F1804FB8
:101FB00070D040F20047C4F20007BB426AD040F63E
:101FC0000007C4F20007BB4264D07DE025F0100298
:101FD0001A621A4652F8185F24024FF2FF071E6A6F
:101FE000BC4325F473456EF30F3444EA050726F02D
:101FF000A0060CF00A0546EA051630E025F48072CA
:102000001A621A4652F81C5F1E6A25F0F3056EF339
:10201000071444EA050726F420660CF00A0546EA90
:10202000052617601E62136823F00C03136041E05D
:1020300025F480521A621A4652F81C5F24024FF2AD
:10204000FF071E6ABC4325F473456EF30F3444EA60
:10205000050726F420460CF00A0546EA0536176007
:102060001E62136823F4406313608968090222E04A
:1020700042F60047C4F20107BB420BD044F200070E
:10208000C4F20107BB4205D043F20047C4F2010786
:10209000BB4219D126F00306344325F00A070CF0A1
:1020A0000A066EF3071437449C611F629F6927F08C
:1020B0000C079F618968136819431160002180F83B
:1020C0003C100020F0BD00BF46F00104E5E7000031
:1020D000002804BF0120704710B5044690F83D0069
:1020E00028B9002084F83C00204600F023F80220A4
:1020F00084F83D002068211D02F0D2FF012084F801
:10210000480084F83E0084F83F0084F8400084F8DA
:10211000410084F8420084F8430084F8440084F8C5
:10212000450084F8460084F8470084F83D0000200C
:1021300010BD00007047000080B5E9B10A1F4FEAEA
:10214000B20E43234FF03F0CBEF1040F38BF0CEB2F
:10215000B203C25C4723082908BF4623042908BFED
:102160004523012A4FF0010210F803C008BFBCF15B
:10217000010F17D0104680BD90F83E2090F84430F3
:10218000012A4FF0010208BF012BF3D1022280F88F
:102190003E2080F844204FEAB1020068032A2BD980
:1021A00033E000BFBEF1030F00F27A80DFE80EF0EB
:1021B0000214080E022280F83F20082911D174E091
:1021C000022280F8412008290BD16EE0022280F81B
:1021D0004220082905D168E0022280F84020082921
:1021E00063D0042914BF80F8472080F845204FEAC7
:1021F000B1020068032A08D847F63853C0F6000336
:1022000053F82220C3681A43C26001F01F01012263
:10221000036A02FA01F123EA01020262026A11432F
:1022200042F6FF32C4F201029042016210DCB0F1CA
:10223000804F1FD040F20041C4F20001884219D003
:1022400040F60001C4F20001884213D020E000BF34
:1022500042F60041C4F2010188420BD044F2000171
:10226000C4F20101884205D043F20041C4F20101E9
:1022700088420DD181680722C0F20102114006296F
:102280004FF000023FF476AFB1F5803F3FF472AFFC
:102290000168002241F001010160104680BD00BFCD
:1022A000022280F8432008299BD180F846204FEA7B
:1022B000B1020068032A9FD9A7E7000010B50168A2
:1022C00004460869800744BFC8685FEA807061D42B
:1022D0000869400744BFC8685FEA407066D408696F
:1022E000000744BFC8685FEA00706DD40869C00683
:1022F00044BFC8685FEAC06072D40869C0071CBFE9
:10230000C8685FEAC07079D10869000644BFC86830
:102310005FEA00607AD40869C00544BFC8685FEA14
:10232000006000F17B800869400644BFC8685FEA2E
:10233000406000F17B800869800644BFC8685FEA9E
:10234000806000F17B800869C00244BFC8685FEA12
:10235000C02000F17B800869800244BFC8685FEA42
:10236000802000F17B800869400244BFC8685FEAB2
:10237000402000F17B800869000246BFC8685FEA20
:10238000002010BD6FF4000220460A61BDE8104035
:10239000FFF7B8BB6FF00200086101202077886961
:1023A00080076BD02046FFF7B3FD6DE06FF00400AF
:1023B000086102202077886910F4407F68D02046A9
:1023C000FFF7A6FD6AE000BF6FF008000861042077
:1023D0002077C869800765D02046FFF799FD67E040
:1023E0006FF01000086108202077C86910F4407F62
:1023F00062D02046FFF78CFD64E000BF6FF0010063
:102400000861204600F066F821687DE76FF08000E3
:1024100008612046FFF718FB21687CE76FF48070A5
:1024200008612046FFF70EFB21687CE76FF0400053
:102430000861204600F05EF821687CE76FF020001C
:1024400008612046FFF702FB21687CE76FF48010EB
:1024500008612046FFF7FEFA21687CE76FF4001060
:1024600008612046FFF7F4FA21687CE76FF48000EA
:1024700008612046FFF7F0FA21687CE7204600F06B
:1024800025F8204600F024F82168002020771FE777
:10249000204600F01BF8204600F01AF821680020C2
:1024A00020771CE7204600F011F8204600F010F8D5
:1024B00021680020207719E7204600F007F8204621
:1024C00000F006F821680020207716E7704700002A
:1024D0007047000040F25021C2F20001884218BF4C
:1024E000704740F2A000C2F20000816801318160B3
:1024F00002F0A2BE70470000FEE7000040F2184163
:10250000C4F600010A6942F400720A610A6942F4E1
:1025100080720A610A6842F020020A602022C1F833
:10252000FC230A6942F020020A6100BF00BF00BF1D
:102530000A6842F020020A600A6842F480720A6067
:102540000022C1F8FC230B6943F020030B6100BF9C
:1025500000BF00BF0B6843F020030B600B6843F41F
:1025600080730B600B6943F400730B610B6943F4D8
:1025700080730B610B6843F020030B602123C1F8CB
:10258000FC330B6943F020030B6100BF00BF00BFA9
:102590000B6843F020030B600B6843F480730B60FF
:1025A000C1F8FC230A6942F020020A6100BF00BFA3
:1025B00000BF0A6842F020020A600A6842F4807292
:1025C0000A600A6942F400720A610A6942F4807280
:1025D0000A610A6842F020020A602222C1F8FC2344
:1025E0000A6942F020020A6100BF00BF00BF0A680A
:1025F00042F020020A600A6842F480720A6000BF5A
:1026000000BF00BF0A6842F400720A604FF49632BD
:102610000B69053A43F400730B610B6843F4807354
:102620000B600B6843F020030B60C1F8FC030B69DF
:1026300043F020030B6100BF00BF00BF0B6843F0F5
:1026400020030B600B6843F480730B6000BF00BF76
:1026500000BF0B6843F400730B600B6943F4007315
:102660000B610B6843F480730B600B6843F020032D
:102670000B60C1F8FC030B6943F020030B6100BF42
:1026800000BF00BF0B6843F020030B600B6843F4EE
:1026900080730B6000BF00BF00BF0B6843F4007382
:1026A0000B600B6943F400730B610B6843F4807398
:1026B0000B600B6843F020030B60C1F8FC030B694F
:1026C00043F020030B6100BF00BF00BF0B6843F065
:1026D00020030B600B6843F480730B6000BF00BFE6
:1026E00000BF0B6843F400730B600B6943F4007385
:1026F0000B610B6843F480730B600B6843F020039D
:102700000B60C1F8FC030B6943F020030B6100BFB1
:1027100000BF00BF0B6843F020030B600B6843F45D
:1027200080730B6000BF00BF00BF0B6843F40073F1
:102730000B600B6943F400730B610B6843F4807307
:102740000B600B6843F020030B60C1F8FC030B69BE
:1027500043F020030B6100BF00BF00BF0B6843F0D4
:1027600020030B600B6843F480730B6000BF00BF55
:1027700000BF0B6843F400730B607FF449AF7047F0
:102780000A78002A08BF70472DE9F04146F66838FC
:1027900004464D1C002740F23F16C0F6000800BF5B
:1027A000A2F12000C1B2490051FA80F008EB0012FA
:1027B000B1B2204600F00AF8EA5D22B1103E132FB4
:1027C00007F10107ECD3BDE8F04170472DE9F04770
:1027D00040F21843C4F600031F694FF0200C47F481
:1027E00000771F611F694FF0210E47F480771F614A
:1027F0001F6840F2080947F020071F60C3F8FCC3B8
:102800001F6940F2961A47F020071F6100BF00BF02
:1028100000BF1F684FF0220847F020071F601F68A5
:10282000C2F2000947F480771F60C3F8FC031F69F8
:10283000C2F2000A47F020071F6100BF00BF00BFBF
:102840001F6847F020071F601F6847F480771F60EC
:102850001F6947F400771F611F6947F480771F6184
:102860001F6847F020071F60C3F8FCE31C6944F0B1
:1028700020041C6100BF00BF00BF1C6844F020049E
:102880001C601C6844F480741C60C3F8FC131C6951
:1028900044F020041C6100BF00BF00BF1C6844F06E
:1028A00020041C601C6844F480741C60002400BF79
:1028B0001D6945F400751D611D6945F480751D6134
:1028C0001D6845F020051D60C3F8FC831D6945F0B7
:1028D00020051D6100BF00BF00BF1D6845F0200539
:1028E0001D601D6845F480751D6000BF00BF00BFFE
:1028F0001D6845F400751D60002500BF32F81460A6
:10290000EE40F607564608BF4E4636881F6947F424
:1029100000771F611F6847F480771F601F6847F0CA
:1029200020071F60C3F8FC631E696F1C46F0200679
:102930001E6100BF00BF00BF1E6846F020061E607B
:102940001E6846F480761E6000BF00BF00BF1E6890
:1029500046F400761E6032F81460FE40F6075646D4
:1029600008BF4E4636881F6947F400771F611F680D
:1029700047F480771F601F6847F020071F60C3F887
:10298000FC631E69AF1C46F020061E6100BF00BF3D
:1029900000BF1E6846F020061E601E6846F4807662
:1029A0001E6000BF00BF00BF1E6846F400761E60B8
:1029B00032F81460FE40F607564608BF4E46368889
:1029C0001F6947F400771F611F6847F480771F6015
:1029D0001F6847F020071F60C3F8FC631E69EF1CE7
:1029E00046F020061E6100BF00BF00BF1E68043510
:1029F00046F020061E601E6846F480761E6000BF0A
:102A000000BF00BF1E6846F400761E6032F81460F6
:102A1000FE40F607564608BF4E4636881F69102D01
:102A200047F400771F611F6847F480771F601F68B5
:102A300047F020071F60C3F8FC631E6946F02006BC
:102A40001E6100BF00BF00BF1E6846F020061E606A
:102A50001E6846F480761E6000BF00BF00BF1E687F
:102A600046F400761E607FF449AF1D69013045F4DD
:102A700000751D611D69013445F480751D611D6877
:102A8000182C45F020051D60C3F8FCC31D6945F0F6
:102A900020051D6100BF00BF00BF1D6845F0200577
:102AA0001D601D6845F480751D60C5B2C3F8FC53F8
:102AB0001D6945F020051D6100BF00BF00BF1D68F6
:102AC00045F020051D601D6845F480751D601D6979
:102AD00045F400751D611D6945F480751D611D6813
:102AE00045F020051D60C3F8FCE31D6945F0200595
:102AF0001D6100BF00BF00BF1D6845F020051D60BF
:102B00001D6845F480751D60C3F8FC131D6945F010
:102B100020051D6100BF00BF00BF1D6845F02005F6
:102B20001D601D6845F480751D6008BFBDE8F08715
:102B3000BEE600002DE9F04F8BB0002641F24C00BC
:102B40000596CDE90366CDE90166C4F2020001688D
:102B500040F2184541F0040101600168C4F6000527
:102B600001F0040106910699016801AC41F00101F0
:102B70000160016840F6140901F00101069106990F
:102B800001684FF0030841F002010160006821462E
:102B900000F00200069006984FF448700190012062
:102BA0000290A5F11800C4F600090127CDE90368D9
:102BB000FEF712F94FF48070CDE901074FF0904015
:102BC0002146CDE90368FEF707F94FF6FF7005F5DA
:102BD0007A74069006A920460A964FF6FF7BCDF838
:102BE0002480CDE90776FEF7F7F84FF6004ACFF6D6
:102BF000FF7A55F80A0006A940F4807045F80A00EB
:102C000028684FF6FF7740F408702860286940F480
:102C100000702861286940F480702861286840F0BD
:102C200020002860C9F80060286940F02000286171
:102C300000BF00BF00BF286840F02000286028685F
:102C400040F48070286020460A96CDF818B0CDF880
:102C50002480CDE90766FEF7BFF84FF6104BCFF69C
:102C6000FF7B55F80B0007A940F4807045F80B0076
:102C700000BF00BF00BFD5F8F89355F80A0040F434
:102C8000807045F80A00012081E8410106A920462C
:102C90000A960697FEF7A0F8286848F2302140F41B
:102CA0000070286040F2B610C2F20000A0F8009058
:102CB0000088884202D100F0CFF901E000F040FF27
:102CC0002869002740F40070286128694FF6FF78D2
:102CD00040F48070286128684FF0030940F020001C
:102CE000286040F61400C4F600000760286906A9B1
:102CF00040F02000286100BF00BF00BF286840F0FE
:102D000020002860286840F48070286020460A97D8
:102D1000CDE90687CDE90879FEF75EF855F80B0096
:102D200007A940F4807045F80B0000BF00BF00BF4A
:102D3000D5F8F86355F80A0040F4807045F80A00A9
:102D4000012081E8810206A920460A97CDF8188063
:102D5000FEF742F8286840F40070286040F2B61090
:102D6000C2F2000006800BB0BDE8F08F81B0ADF874
:102D70000200BDF8020040F20801C2F20001088022
:102D800001B0704781B0ADF80200BDF8020040F21A
:102D90009611C2F20001088001B070472DE9F0439E
:102DA00087B0002741F24C000697CDE90477CDE9C2
:102DB0000277C4F20200016840F6000541F0040108
:102DC00001600168C4F6000501F004010191019958
:102DD0000168012241F02001016001684FF47F4643
:102DE00001F020010191019901684FF0010841F0C3
:102DF00001010160016801F001010191019901687F
:102E000041F002010160016801F0020101910199A4
:102E1000016841F00801016000684FF47F4100F053
:102E20000800019001982846FEF7BEF805F5806479
:102E30002046042101224FF00409FEF7B5F8CDE940
:102E4000026802AE28463146CDE90477FDF7C4FF9B
:102E50004FF090403146CDE902870497FDF7BCFF63
:102E60000720CDE90207A5F5806031460497FDF7FC
:102E7000B3FF20463146CDE90298CDE90477FDF74E
:102E8000ABFF07B0BDE8F08310B58CB040F2B810CE
:102E90000021C2F200004FF080424F234FF0FF3478
:102EA0000B91CDE909110791CDE90511CDE9031188
:102EB000CDE90111C0E90023C0E90214016181617B
:102EC000FEF722FE002818BFFDF76CFF4FF480507C
:102ED000089040F2B810C2F2000008A9FEF722FFE5
:102EE000002818BFFDF75EFF40F2B810C2F20000E4
:102EF000FFF7EEF8002818BFFDF754FF40F2B810B6
:102F00000024C2F2000005A905940794FEF7A6FD6F
:102F1000002818BFFDF746FF0120CDE902040F206D
:102F2000049040F2B810C2F2000001A900220194FE
:102F3000FFF71CF8002818BFFDF734FF0CB010BDD8
:102F400010B58CB040F2042040F200420021C2F2E1
:102F50000000C4F200024F234FF6FF740B91CDE93D
:102F600009110791CDE90511CDE90311CDE9011151
:102F7000C0E90023C0E9021401618161FEF7C4FDCC
:102F8000002818BFFDF70EFF4FF48050089040F264
:102F90000420C2F2000008A9FEF7C4FE002818BFF2
:102FA000FDF700FF40F20420C2F20000FFF790F8A6
:102FB000002818BFFDF7F6FE40F204200024C2F2FC
:102FC000000005A905940794FEF748FD002818BFE6
:102FD000FDF7E8FE0120CDE902040F20049040F245
:102FE0000420C2F2000001A900220194FEF7BEFFF6
:102FF000002818BFFDF7D6FE0CB010BD10B584B088
:1030000040F2502041F200010024C2F20000C4F25C
:10301000000140F2E73302944F2280E81600C360BB
:103020008461FEF771FD002818BFFDF7BBFE40F27A
:103030005020C2F2000001A901940394FEF70EFD96
:10304000002818BFFDF7AEFE04B010BDFEE700007B
:10305000FEE700007047000040F21840C4F6000090
:103060000169002241F40071016101694FF0030C14
:1030700041F480710161016841F020010160C0F8F4
:10308000FC23016941F02001016100BF00BF00BFC6
:10309000016841F020010160016841F48071016024
:1030A0000121C0F8FC13036943F02003036100BF52
:1030B00000BF00BF036843F020030360036843F4CC
:1030C00080730360036943F400730361036943F48D
:1030D00080730361036843F020030360C0F8FC13AE
:1030E000036943F02003036100BF00BF00BF036812
:1030F00043F020030360036843F480730360C0F867
:10310000FC23026942F02002026100BF00BF00BF41
:10311000026842F020020260026842F4807202609B
:10312000026942F400720261026942F48072026133
:10313000026842F0200202601022C0F8FC230269FB
:1031400042F02002026100BF00BF00BF026842F0EF
:1031500020020260026842F48072026041F29072C2
:10316000C0F8FC23026942F02002026100BF00BFE8
:1031700000BF026842F020020260026842F48072DE
:103180000260026942F400720261026942F48072D4
:103190000261026842F0200202606022C0F8FC2353
:1031A000026942F02002026100BF00BF00BF026856
:1031B00042F020020260026842F4807202604FF422
:1031C0001C52C0F8FC23026942F02002026100BFD9
:1031D00000BF00BF026842F020020260026842F4B1
:1031E00080720260026942F400720261026942F474
:1031F00080720261026842F0200202606122C0F81F
:10320000FC23026942F02002026100BF00BF00BF40
:10321000026842F020020260026842F4807202609A
:10322000C0F8FC13016941F02001016100BF00BF3B
:1032300000BF016841F020010160016841F4807124
:103240000160016941F400710161016941F480711B
:103250000161016841F0200101604621C0F8FC13C2
:10326000016941F02001016100BF00BF00BF01689A
:1032700041F020010160016841F480710160022188
:10328000C0F8FC13026942F02002026100BF00BFD7
:1032900000BF026842F020020260026842F48072BD
:1032A0000260026942F400720261026942F48072B3
:1032B0000261026842F0200202601322C0F8FC237F
:1032C000026942F02002026100BF00BF00BF026835
:1032D00042F020020260026842F48072026048F20A
:1032E0001002C0F8FC23026942F02002026100BF14
:1032F00000BF00BF026842F020020260026842F490
:1033000080720260026942F400720261026942F452
:1033100080720261026842F0200202601222C0F84C
:10332000FC23026942F02002026100BF00BF00BF1F
:10333000026842F020020260026842F48072026079
:1033400048F2FE02C0F8FC23026942F0200202614A
:1033500000BF00BF00BF026842F0200202600268A6
:1033600042F480720260026942F4007202610269F2
:1033700042F480720261026842F020020260C0F8EA
:10338000FC13016941F02001016100BF00BF00BFD3
:10339000016841F020010160016841F48071016021
:1033A0004FF4A061C0F8FC13016941F020010161F4
:1033B00000BF00BF00BF016841F02001016001684B
:1033C00041F480710160016941F40071016101699A
:1033D00041F480710161016841F020010160C0F891
:1033E000FCC3026942F02002026100BF00BF00BFBF
:1033F000026842F020020260026842F480720260B9
:1034000041F23002C0F8FC23026942F0200202615E
:1034100000BF00BF00BF026842F0200202600268E5
:1034200042F480720260026942F400720261026931
:1034300042F480720261026842F02002026030228F
:10344000C0F8FC23026942F02002026100BF00BF05
:1034500000BF026842F020020260026842F48072FB
:10346000026040F20332C0F8FC23036943F02003FA
:10347000036100BF00BF00BF036843F02003036087
:10348000036843F480730360036943F400730361CA
:10349000036943F480730361036843F0200303600E
:1034A0003123C0F8FC33036943F02003036100BFFC
:1034B00000BF00BF036843F020030360036843F4C8
:1034C00080730360C0F8FC23036943F020030361A9
:1034D00000BF00BF00BF036843F020030360036820
:1034E00043F480730360036943F400730361036969
:1034F00043F480730361036843F0200303603223C5
:10350000C0F8FC33036943F02003036100BF00BF30
:1035100000BF036843F020030360036843F4807333
:103520000360C0F8FC23036943F02003036100BF7C
:1035300000BF00BF036843F020030360036843F447
:1035400080730360036943F400730361036943F408
:1035500080730361036843F0200303603323C0F8E2
:10356000FC33036943F02003036100BF00BF00BFC9
:10357000036843F020030360036843F4807303602F
:103580004FF44073C0F8FC33016941F02001016140
:1035900000BF00BF00BF016841F020010160016869
:1035A00041F480710160016941F4007101610169B8
:1035B00041F480710161016841F020010160342112
:1035C000C0F8FC13016941F02001016100BF00BF98
:1035D00000BF016841F020010160016841F4807181
:1035E0000160C0F8FCC3016941F02001016100BF26
:1035F00000BF00BF016841F020010160016841F493
:1036000080710160016941F400710161016941F457
:1036100080710161016841F0200101603521C0F82D
:10362000FC13016941F02001016100BF00BF00BF30
:10363000016841F020010160016841F4807101607E
:10364000C0F8FC23016941F02001016100BF00BF07
:1036500000BF016841F020010160016841F4807100
:103660000160016941F400710161016941F48071F7
:103670000161016841F0200101603621C0F8FC13AE
:10368000016941F02001016100BF00BF00BF016876
:1036900041F020010160016841F480710160142152
:1036A000C0F8FC13016941F02001016100BF00BFB7
:1036B00000BF016841F020010160016841F48071A0
:1036C0000160016941F400710161016941F4807197
:1036D0000161016841F0200101603721C0F8FC134D
:1036E000016941F02001016100BF00BF00BF016816
:1036F00041F020010160016841F480710160C0F86F
:10370000FC23016941F02001016100BF00BF00BF3F
:10371000016841F020010160016841F4807101609D
:10372000016941F400710161016941F48071016135
:10373000016841F0200101603821C0F8FC130169E3
:1037400041F02001016100BF00BF00BF016841F0EE
:1037500020010160016841F480710160C0F8FC2320
:10376000016941F02001016100BF00BF00BF016895
:1037700041F020010160016841F48071016001693C
:1037800041F400710161016941F4807101610168D6
:1037900041F0200101603921C0F8FC13016941F0BA
:1037A0002001016100BF00BF00BF016841F020019E
:1037B0000160016841F480710160C0F8FC23016977
:1037C00041F02001016100BF00BF00BF016841F06E
:1037D00020010160016841F480710160016941F4D8
:1037E00000710161016941F480710161016841F07A
:1037F000200101603A21C0F8FC13016941F0200169
:10380000016100BF00BF00BF016841F020010160FD
:10381000016841F480710160C0F8FC33016941F036
:103820002001016100BF00BF00BF016841F020011D
:103830000160016841F480710160016941F4007127
:103840000161016941F480710161016841F0200169
:1038500001603B21C0F8FC13016941F020010161C6
:1038600000BF00BF00BF016841F020010160016896
:1038700041F480710160C0F8FCC3016941F020018E
:10388000016100BF00BF00BF016841F0200101607D
:10389000016841F480710160016941F400710161C6
:1038A000016941F480710161016841F0200101600A
:1038B0003C21C0F8FC13016941F02001016100BF07
:1038C00000BF00BF016841F020010160016841F4C0
:1038D00080710160C0F8FC23016941F020010161A1
:1038E00000BF00BF00BF016841F020010160016816
:1038F00041F480710160016941F400710161016965
:1039000041F480710161016841F0200101603D21B5
:10391000C0F8FC13016941F02001016100BF00BF44
:1039200000BF016841F020010160016841F480712D
:1039300001604FF4A051C0F8FC13016941F020016F
:10394000016100BF00BF00BF016841F020010160BC
:10395000016841F480710160016941F40071016105
:10396000016941F480710161016841F02001016049
:103970009221C0F8FC13016941F02001016100BFF0
:1039800000BF00BF016841F020010160016841F4FF
:10399000807101604FF40071C0F8FC13016941F0BF
:1039A0002001016100BF00BF00BF016841F020019C
:1039B0000160016841F480710160016941F40071A6
:1039C0000161016941F480710161016841F02001E8
:1039D00001609321C0F8FC13016941F020010161ED
:1039E00000BF00BF00BF016841F020010160016815
:1039F00041F480710160C0F8FC23016941F02001AD
:103A0000016100BF00BF00BF016841F020010160FB
:103A1000016841F480710160016941F40071016144
:103A2000016941F480710161016841F02001016088
:103A30009021C0F8FC13016941F02001016100BF31
:103A400000BF00BF016841F020010160016841F43E
:103A50008071016040F60D01C0F8FC13016941F06E
:103A60002001016100BF00BF00BF016841F02001DB
:103A70000160016841F480710160016941F40071E5
:103A80000161016941F480710161016841F0200127
:103A90000160C0F8FCC3016941F02001016100BF71
:103AA00000BF00BF016841F020010160016841F4DE
:103AB0008071016041F21801C0F8FC13016941F006
:103AC0002001016100BF00BF00BF016841F020017B
:103AD0000160016841F480710160016941F4007185
:103AE0000161016941F480710161016841F02001C7
:103AF00001600721C0F8FC13016941F02001016158
:103B000000BF00BF00BF016841F0200101600168F3
:103B100041F48071016040F27311C0F8FC13016937
:103B200041F02001016100BF00BF00BF016841F00A
:103B300020010160016841F480710160704700005C
:103B40002DE9F04F81B040F21844C4F6000420691A
:103B50004FF0120940F4007020612069002540F404
:103B6000807020612068112640F020002060E32052
:103B7000C4F8FC0320694FF0130B40F020002061D3
:103B800000BF00BF00BF2068102740F02000206069
:103B900020684FF0070840F48070206043F208006E
:103BA000C4F8FC03206940F02000206100BF00BF82
:103BB00000BF206840F020002060206840F4807042
:103BC0002060206940F400702061206940F480701A
:103BD0002061206840F020002060E720C4F8FC034A
:103BE000206940F02000206100BF00BF00BF2068B6
:103BF00040F020002060206840F480702060C4F80D
:103C0000FC93206940F02000206100BF00BF00BF8E
:103C1000206840F020002060206840F48070206020
:103C2000206940F400702061206940F480702061B8
:103C3000206840F020002060EF20C4F8FC032069D9
:103C400040F02000206100BF00BF00BF206840F0AE
:103C500020002060206840F48070206041F2312014
:103C6000C4F8FC03206940F02000206100BF00BFC1
:103C700000BF206840F020002060206840F4807081
:103C80002060206940F400702061206940F4807059
:103C90002061206840F0200020600120C4F8FC036F
:103CA000206940F02000206100BF00BF00BF2068F5
:103CB00040F020002060206840F480702060C4F84C
:103CC000FC53206940F02000206100BF00BF00BF0E
:103CD000206840F020002060206840F48070206060
:103CE000206940F400702061206940F480702061F8
:103CF000206840F0200020600220C4F8FC03206906
:103D000040F02000206100BF00BF00BF206840F0ED
:103D100020002060206840F4807020604FF4E06054
:103D2000C4F8FC03206940F02000206100BF00BF00
:103D300000BF206840F020002060206840F48070C0
:103D40002060206940F400702061206940F4807098
:103D50002061206840F0200020600320C4F8FC03AC
:103D6000206940F02000206100BF00BF00BF206834
:103D700040F020002060206840F48070206041F214
:103D80003000C4F8FC03206940F02000206100BF2F
:103D900000BF00BF206840F020002060206840F491
:103DA00080702060206940F400702061206940F438
:103DB00080702061206840F0200020600420C4F85A
:103DC000FC03206940F02000206100BF00BF00BF5D
:103DD000206840F020002060206840F4807020605F
:103DE000C4F8FC53206940F02000206100BF00BFF0
:103DF00000BF206840F020002060206840F4807000
:103E00002060206940F400702061206940F48070D7
:103E10002061206840F0200020600820C4F8FC03E6
:103E2000206940F02000206100BF00BF00BF206873
:103E300040F020002060206840F48070206040F254
:103E40000720C4F8FC03206940F02000206100BF77
:103E500000BF00BF206840F020002060206840F4D0
:103E600080702060206940F400702061206940F477
:103E700080702061206840F0200020600920C4F894
:103E8000FC03206940F02000206100BF00BF00BF9C
:103E9000206840F020002060206840F4807020609E
:103EA000C4F8FC53206940F02000206100BF00BF2F
:103EB00000BF206840F020002060206840F480703F
:103EC0002060206940F400702061206940F4807017
:103ED0002061206840F0200020600A20C4F8FC0324
:103EE000206940F02000206100BF00BF00BF2068B3
:103EF00040F020002060206840F480702060C4F80A
:103F0000FC53206940F02000206100BF00BF00BFCB
:103F1000206840F020002060206840F4807020601D
:103F2000206940F400702061206940F480702061B5
:103F3000206840F0200020600C20C4F8FC032069B9
:103F400040F02000206100BF00BF00BF206840F0AB
:103F500020002060206840F480702060C4F8FC538A
:103F6000206940F02000206100BF00BF00BF206832
:103F700040F020002060206840F4807020602069BC
:103F800040F400702061206940F480702061206856
:103F900040F0200020600D20C4F8FC03206940F0B0
:103FA0002000206100BF00BF00BF206840F020005B
:103FB0002060206840F480702060C4F8FC532069C1
:103FC00040F02000206100BF00BF00BF206840F02B
:103FD00020002060206840F480702060206940F458
:103FE00000702061206940F480702061206840F0FA
:103FF000200020600F20C4F8FC03206940F020005E
:10400000206100BF00BF00BF206840F0200020609A
:10401000206840F480702060C4F8FC53206940F0B0
:104020002000206100BF00BF00BF206840F02000DA
:104030002060206840F480702060206940F40070A7
:104040002061206940F480702061206840F02000E9
:1040500020601020C4F8FC03206940F0200020619B
:1040600000BF00BF00BF206840F020002060206833
:1040700040F480702060C4F8FC53206940F02000B8
:10408000206100BF00BF00BF206840F0200020601A
:10409000206840F480702060206940F40070206146
:1040A000206940F480702061206840F0200020608A
:1040B000C4F8FC63206940F02000206100BF00BF0D
:1040C00000BF206840F020002060206840F480702D
:1040D00020600720C4F8FC03206940F02000206124
:1040E00000BF00BF00BF206840F0200020602068B3
:1040F00040F480702060206940F4007020612069E5
:1041000040F480702061206840F020002060C4F8F6
:10411000FC93206940F02000206100BF00BF00BF79
:10412000206840F020002060206840F4807020600B
:10413000C4F8FC53206940F02000206100BF00BF9C
:1041400000BF206840F020002060206840F48070AC
:104150002060206940F400702061206940F4807084
:104160002061206840F020002060C4F8FCB3206982
:1041700040F02000206100BF00BF00BF206840F079
:1041800020002060206840F480702060C4F8FC5358
:10419000206940F02000206100BF00BF00BF206800
:1041A00040F020002060206840F480702060C8202B
:1041B000FCF7FEFD20694FF0320A40F400702061E8
:1041C000206940F480702061206840F02000206069
:1041D000C4F8FC732069102740F02000206100BF64
:1041E00000BF00BF206840F020002060206840F43D
:1041F0008070206041F29060C4F8FC03206940F0B8
:104200002000206100BF00BF00BF206840F02000F8
:104210002060206840F480702060206940F40070C5
:104220002061206940F480702061206840F0200007
:104230002060C4F8FC63206940F02000206100BFCA
:1042400000BF00BF206840F020002060206840F4DC
:104250008070206040F22720C4F8FC03206940F001
:104260002000206100BF00BF00BF206840F0200098
:104270002060206840F4807020603220FCF798FDB8
:10428000206940F400702061206940F48070206152
:10429000206840F020002060C4F8FC93206940F0C2
:1042A0002000206100BF00BF00BF206840F0200058
:1042B0002060206840F4807020601D20C4F8FC035A
:1042C000206940F02000206100BF00BF00BF2068CF
:1042D00040F020002060206840F480702060322090
:1042E000FCF766FD206940F400702061206940F40D
:1042F00080702061206840F020002060C4F8FCB38A
:10430000206940F02000206100BF00BF00BF20688E
:1043100040F020002060206840F4807020604FF45E
:104320000060C4F8FC03206940F02000206100BF59
:1043300000BF00BF206840F020002060206840F4EB
:1043400080702060206940F400702061206940F492
:1043500080702061206840F0200020602920C4F88F
:10436000FC03206940F02000206100BF00BF00BFB7
:10437000206840F020002060206840F480702060B9
:104380001420C4F8FC03206940F02000206100BF25
:1043900000BF00BF206840F020002060206840F48B
:1043A00080702060206940F400702061206940F432
:1043B00080702061206840F0200020602B20C4F82D
:1043C000FC03206940F02000206100BF00BF00BF57
:1043D000206840F020002060206840F48070206059
:1043E0000B20C4F8FC03206940F02000206100BFCE
:1043F00000BF00BF206840F020002060206840F42B
:10440000807020603220FCF7D3FC2069032140F447
:10441000007020612069072240F4807020612068CC
:1044200040F0200020602020C4F8FC03206940F008
:104430002000206100BF00BF00BF206840F02000C6
:104440002060206840F480702060C4F8FC5320692C
:1044500040F02000206100BF00BF00BF206840F096
:1044600020002060206840F480702060206940F4C3
:1044700000702061206940F480702061206840F065
:10448000200020602120C4F8FC03206940F02000B7
:10449000206100BF00BF00BF206840F02000206006
:1044A000206840F480702060C4F8FC53206940F01C
:1044B0002000206100BF00BF00BF206840F0200046
:1044C0002060206840F480702060206940F4007013
:1044D0002061206940F480702061206840F0200055
:1044E00020603020C4F8FC03206940F020002061E7
:1044F00000BF00BF00BF206840F02000206020689F
:1045000040F480702060C4F8FC83206940F02000F3
:10451000206100BF00BF00BF206840F02000206085
:10452000206840F480702060206940F400702061B1
:10453000206940F480702061206840F020002060F5
:104540003120C4F8FC03206940F02000206100BF46
:1045500000BF00BF206840F020002060206840F4C9
:104560008070206040F20770C4F8FC03206940F0BE
:104570002000206100BF00BF00BF206840F0200085
:104580002060206840F480702060206940F4007052
:104590002061206940F480702061206840F0200094
:1045A0002060C4F8FCA3206940F02000206100BF17
:1045B00000BF00BF206840F020002060206840F469
:1045C000807020600620C4F8FC03206940F02000C1
:1045D000206100BF00BF00BF206840F020002060C5
:1045E000206840F480702060206940F400702061F1
:1045F000206940F480702061206840F02000206035
:104600003520C4F8FC03206940F02000206100BF81
:1046100000BF00BF206840F020002060206840F408
:104620008070206040F20470C4F8FC03206940F000
:104630002000206100BF00BF00BF206840F02000C4
:104640002060206840F480702060206940F4007091
:104650002061206940F480702061206840F02000D3
:1046600020603620C4F8FC03206940F0200020615F
:1046700000BF00BF00BF206840F02000206020681D
:1046800040F48070206041F60470C4F8FC03206997
:1046900040F02000206100BF00BF00BF206840F054
:1046A00020002060206840F480702060206940F481
:1046B00000702061206940F480702061206840F023
:1046C000200020603720C4F8FC03206940F020005F
:1046D000206100BF00BF00BF206840F020002060C4
:1046E000206840F4807020600420C4F8FC03206936
:1046F00040F02000206100BF00BF00BF206840F0F4
:1047000020002060206840F480702060206940F420
:1047100000702061206940F480702061206840F0C2
:10472000200020603820C4F8FC03206940F02000FD
:10473000206100BF00BF00BF206840F02000206063
:10474000206840F480702060C4F8FC53206940F079
:104750002000206100BF00BF00BF206840F02000A3
:104760002060206840F480702060206940F4007070
:104770002061206940F480702061206840F02000B2
:1047800020603920C4F8FC03206940F0200020613B
:1047900000BF00BF00BF206840F0200020602068FC
:1047A00040F48070206040F20670C4F8FC03206979
:1047B00040F02000206100BF00BF00BF206840F033
:1047C00020002060206840F480702060206940F460
:1047D00000702061206940F480702061206840F002
:1047E000200020603C20C4F8FC03206940F0200039
:1047F000206100BF00BF00BF206840F020002060A3
:10480000206840F48070206040F20170C4F8FC031E
:10481000206940F02000206100BF00BF00BF206879
:1048200040F020002060206840F480702060206903
:1048300040F400702061206940F48070206120689D
:1048400040F0200020603D20C4F8FC03206940F0C7
:104850002000206100BF00BF00BF206840F02000A2
:104860002060206840F4807020600F20C4F8FC03B2
:10487000206940F02000206100BF00BF00BF206819
:1048800040F020002060206840F4807020602069A3
:1048900040F400702061206940F48070206120683D
:1048A00040F0200020605020C4F8FC03206940F054
:1048B0002000206100BF00BF00BF206840F0200042
:1048C0002060206840F480702060C4F8FC532069A8
:1048D00040F02000206100BF00BF00BF206840F012
:1048E00020002060206840F480702060206940F43F
:1048F00000702061206940F480702061206840F0E1
:10490000200020605120C4F8FC03206940F0200002
:10491000206100BF00BF00BF206840F02000206081
:10492000206840F480702060EF20C4F8FC03206908
:1049300040F02000206100BF00BF00BF206840F0B1
:1049400020002060206840F480702060206940F4DE
:1049500000702061206940F480702061206840F080
:10496000200020605220C4F8FC03206940F02000A1
:10497000206100BF00BF00BF206840F02000206021
:10498000206840F480702060C4F8FC53206940F037
:104990002000206100BF00BF00BF206840F0200061
:1049A0002060206840F480702060206940F400702E
:1049B0002061206940F480702061206840F0200070
:1049C00020605320C4F8FC03206940F020002061DF
:1049D00000BF00BF00BF206840F0200020602068BA
:1049E00040F48070206040F23F10C4F8FC0320695E
:1049F00040F02000206100BF00BF00BF206840F0F1
:104A000020002060206840F480702060206940F41D
:104A100000702061206940F480702061206840F0BF
:104A2000200020606020C4F8FC03206940F02000D2
:104A3000206100BF00BF00BF206840F02000206060
:104A4000206840F4807020604FF41C50C4F8FC03D0
:104A5000206940F02000206100BF00BF00BF206837
:104A600040F020002060206840F4807020602069C1
:104A700040F400702061206940F48070206120685B
:104A800040F0200020606120C4F8FC03206940F061
:104A90002000206100BF00BF00BF206840F0200060
:104AA0002060206840F4807020600120C4F8FC037E
:104AB000206940F02000206100BF00BF00BF2068D7
:104AC00040F020002060206840F480702060206961
:104AD00040F400702061206940F4807020612068FB
:104AE00040F0200020606A20C4F8FC03206940F0F8
:104AF0002000206100BF00BF00BF206840F0200000
:104B00002060206840F480702060C4F8FC53206965
:104B100040F02000206100BF00BF00BF206840F0CF
:104B200020002060206840F480702060206940F4FC
:104B300000702061206940F480702061206840F09E
:104B4000200020608020C4F8FC03206940F0200091
:104B5000206100BF00BF00BF206840F0200020603F
:104B6000206840F480702060C4F8FC53206940F055
:104B70002000206100BF00BF00BF206840F020007F
:104B80002060206840F480702060206940F400704C
:104B90002061206940F480702061206840F020008E
:104BA00020608120C4F8FC03206940F020002061CF
:104BB00000BF00BF00BF206840F0200020602068D8
:104BC00040F480702060C4F8FC53206940F020005D
:104BD000206100BF00BF00BF206840F020002060BF
:104BE000206840F480702060206940F400702061EB
:104BF000206940F480702061206840F0200020602F
:104C00008220C4F8FC03206940F02000206100BF2E
:104C100000BF00BF206840F020002060206840F402
:104C200080702060C4F8FC53206940F020002061AF
:104C300000BF00BF00BF206840F020002060206857
:104C400040F480702060206940F400702061206989
:104C500040F480702061206840F0200020608320B4
:104C6000C4F8FC03206940F02000206100BF00BFB1
:104C700000BF206840F020002060206840F4807071
:104C80002060C4F8FC53206940F02000206100BF80
:104C900000BF00BF206840F020002060206840F482
:104CA00080702060206940F400702061206940F429
:104CB00080702061206840F0200020608420C4F8CB
:104CC000FC03206940F02000206100BF00BF00BF4E
:104CD000206840F020002060206840F48070206050
:104CE000C4F8FC53206940F02000206100BF00BFE1
:104CF00000BF206840F020002060206840F48070F1
:104D00002060206940F400702061206940F48070C8
:104D10002061206840F0200020608520C4F8FC035A
:104D2000206940F02000206100BF00BF00BF206864
:104D300040F020002060206840F480702060C4F8BB
:104D4000FC53206940F02000206100BF00BF00BF7D
:104D5000206840F020002060206840F480702060CF
:104D6000206940F400702061206940F48070206167
:104D7000206840F0200020609020C4F8FC032069E7
:104D800040F02000206100BF00BF00BF206840F05D
:104D900020002060206840F480702060C4F8FC731C
:104DA000206940F02000206100BF00BF00BF2068E4
:104DB00040F020002060206840F48070206020696E
:104DC00040F400702061206940F480702061206808
:104DD00040F0200020609220C4F8FC03206940F0DD
:104DE0002000206100BF00BF00BF206840F020000D
:104DF0002060206840F480702060C4F8FC53206973
:104E000040F02000206100BF00BF00BF206840F0DC
:104E100020002060206840F480702060206940F409
:104E200000702061206940F480702061206840F0AB
:104E3000200020609320C4F8FC03206940F020008B
:104E4000206100BF00BF00BF206840F0200020604C
:104E5000206840F480702060C4F8FC13206940F0A2
:104E60002000206100BF00BF00BF206840F020008C
:104E70002060206840F480702060206940F4007059
:104E80002061206940F480702061206840F020009B
:104E900020609520C4F8FC03206940F020002061C8
:104EA00000BF00BF00BF206840F0200020602068E5
:104EB00040F4807020604FF48870C4F8FC032069CF
:104EC00040F02000206100BF00BF00BF206840F01C
:104ED00020002060206840F480702060206940F449
:104EE00000702061206940F480702061206840F0EB
:104EF000200020609720C4F8FC03206940F02000C7
:104F0000206100BF00BF00BF206840F0200020608B
:104F1000206840F480702060C4F8FC53206940F0A1
:104F20002000206100BF00BF00BF206840F02000CB
:104F30002060206840F480702060206940F4007098
:104F40002061206940F480702061206840F02000DA
:104F500020609820C4F8FC03206940F02000206104
:104F600000BF00BF00BF206840F020002060206824
:104F700040F480702060C4F8FC53206940F02000A9
:104F8000206100BF00BF00BF206840F0200020600B
:104F9000206840F480702060206940F40070206137
:104FA000206940F480702061206840F0200020607B
:104FB000C4F8FC13206940F02000206100BF00BF4E
:104FC00000BF206840F020002060206840F480701E
:104FD000206041F21800C4F8FC03206940F0200072
:104FE000206100BF00BF00BF206840F020002060AB
:104FF000206840F480702060206940F400702061D7
:10500000206940F480702061206840F0200020601A
:10501000C4F8FC23206940F02000206100BF00BFDD
:1050200000BF206840F020002060206840F48070BD
:10503000206040F27310C4F8FC03206940F02000A7
:10504000206100BF00BF00BF206840F0200020604A
:10505000206840F48070206001B0BDE8F08F00004F
:1050600070470000FBF7ACBF4EF68850CEF2000050
:10507000016841F4700101607047000040F2B8100F
:10508000C2F20000FDF71AB940F20420C2F200009B
:10509000FDF714B940F25020C2F20000FDF70EB93E
:1050A00040F2FF7C0268C4F2000C604524DD40F64B
:1050B0000003C4F20003984227D043F20043C4F235
:1050C0000103984221D042F60043C4F20103984202
:1050D0001BD043F2FF33C4F2010398421FDC60454A
:1050E00030DCB0F1804F47D040F20043C4F20003FF
:1050F000984241D044E000BFB0F1804F05D040F26B
:105100000043C4F200039842E3D14B6822F07002DE
:105110001A4343F2FF33C4F201039842DFDD44F245
:10512000FF33C4F2010398421ADC43F20043C4F295
:105130000103984220D044F20003C4F201039842D4
:105140001AD01DE040F60003C4F20003984213D0C9
:1051500042F60043C4F2010398420DD010E000BFB4
:1051600044F60003C4F20103984205D044F2004320
:10517000C4F20103984203D1CB6822F440721A436F
:1051800080B54B6922F0800E8A6843EA0E03D1F89D
:1051900000C00360C262A0F18042A2F596324FEADD
:1051A000B222072AC0F828C0BDE8804007D80123F2
:1051B00003FA02F212F0E50F1CBF09690163012135
:1051C00041617047FEE70000027C0A700021017413
:1051D0007047000040F2AC0040F20042C2F2000012
:1051E000C4F6000242608261C262042200214FF0D4
:1051F000010C022302864FF0904201748172A0F8E4
:1052000008C00170C16080F8241081778383017524
:10521000016280F8381080F832C080F828104163AD
:1052200080F84C1080F846100264A0F844C080F862
:105230003C1081647047000010B540F2AC04C2F22B
:105240000004207801280DD008BB60682189FBF795
:10525000A5FEE0B9012020700020E060207D01283B
:1052600018D12CE060682189FBF798FE60B1E068F6
:105270000021032821700AD3B0F5FA7F1AD3A07A4F
:10528000C0B1022017E000BFE0680130E060207D7F
:10529000012814D038BBA069A18BFBF77FFE10BB9F
:1052A000012020750020206294F8280001281ED1DA
:1052B00035E000BF01202074207D0128EAD1A069DB
:1052C000A18BFBF76BFE58B1206A002103282175E2
:1052D00009D3B0F5FA7F1BD3A07FC8B1022018E034
:1052E000206A0130206294F82800012817D060BBA2
:1052F000E06A218EFBF752FE38BB012084F82800BB
:105300000020606394F83C00012822D137E000BF00
:10531000012084F8240094F828000128E7D1E06AED
:10532000218EFBF73BFE68B1606B0021032884F8F7
:1053300028100AD3B0F5FA7F1AD394F83200B8B126
:10534000022016E0606B0130606394F83C00012895
:1053500015D028B9206CB4F84410FBF71FFE08B133
:1053600010BD00BF012084F83C000020A06410BDE7
:10537000012084F8380094F83C000128E9D1206C21
:10538000B4F84410FBF70AFE80B1A06C002103289A
:1053900084F83C1038BF10BDB0F5FA7F0AD394F8FA
:1053A000460038B1022084F84C0010BDA06C0130DA
:1053B000A06410BD012084F84C0010BDAFF3008044
:1053C00070B540F60005C4F6000505F5806420467A
:1053D00004210122FBF7E8FD40F21006C2F20006AC
:1053E00030784FF4807100F001022846FBF7DCFDB5
:1053F00030784FF40071C0F340022846FBF7D4FD2B
:1054000030784FF48061C0F380022846FBF7CCFD72
:1054100030784FF40061C0F3C0022846FBF7C4FDAA
:1054200030784FF48051C0F300122846FBF7BCFDE2
:1054300030784FF40051C0F340122846FBF7B4FD1A
:1054400030784FF48041C0F380122846FBF7ACFD62
:1054500030784FF40041C2092846FBF7A5FD2046ED
:1054600004210022BDE87040FBF79EBD80B540F2EC
:10547000100EC2F2000E01384FF0010C9EF8002011
:105480000CFA00F042EA0003002908BF22EA0003F8
:105490008EF80030BDE88040FFF792BF94B0FBF774
:1054A0009DFD00244FF400700C94CDE90A44CDE931
:1054B0000844FBF733FE012006904FF4803007903C
:1054C000022014210D900325CDE91010CDE9120022
:1054D00006A8CDE90E55FCF735F828B1EFF310809A
:1054E00072B600BFFEE700BF0F20CDE9010501A89D
:1054F0000221CDE903440594FBF7A2FE20B1EFF3AE
:10550000108072B6FEE700BFFDF748FCFDF7BCFC5B
:10551000FDF716FDFDF772FDFFF75CFEFFF74EFF8E
:1055200000F0D8F900F0C4F940F25020C2F20000B7
:10553000FCF7AEFB40F2A004C2F2000440F21C19DA
:1055400040F2140A40F2E80B4FF00008C2F20009E2
:10555000C2F2000A661CA51CE71CC2F2000B00BFC9
:10556000A068642837D3C4F8088000F0FFF800F082
:105570000BFC99F800100120002918BF0121FFF74A
:1055800075FFDAF80000BAF8121088424FF00001F7
:105590004FF00200D8BF0121FFF768FFDAF80400DE
:1055A000BAF8121088424FF000014FF00300D8BF44
:1055B0000121FFF75BFFDAE9060103284FF0000045
:1055C00038BF012003294FF0000138BF01210140FD
:1055D0000820FFF74BFF40F2AC00C2F2000021466A
:1055E000FFF7F2FD40F2C000C2F200003146FFF7C3
:1055F000EBFD40F2D400C2F200002946FFF7E4FDC3
:1056000058463946FFF7E0FD99F80000032821D8F5
:10561000DFE800F0021A0A12A07800281CBF01205F
:1056200089F8000016E000BFA1782079F1B10228C6
:105630001AD184F8048020E0A078022804BFCAE9C7
:105640000688CAE9088805E0A078002818BF89F80C
:10565000008000BFE07801287FF482AF00F04CF9B1
:1056600084F804807CE700BF01302071C0B20228BA
:1056700016D001280ED00028ECD12078012803D1C3
:1056800000F020F8E6E700BF60780128E2D100F0E2
:1056900043F8DFE72078012808D100F021F8D9E7A6
:1056A0002078012808D100F029F8D3E76078012894
:1056B000D0D100F03DF8CDE760780128CAD100F0E4
:1056C00045F8C7E740F21400C2F20000018A6431D5
:1056D00089B2B1F57A7F28BF4FF47A7101827047A1
:1056E00040F21400C2F20000418A42F210726431AA
:1056F00089B2914238BF0A464282704740F2140094
:10570000C2F20000416901F16402B1F5617FA8BFF6
:105710004FF47A724261704740F21400C2F2000006
:10572000018A64398AB2652A38BF642101827047D0
:1057300040F21400C2F20000418A64398AB2B2F524
:105740007A7F98BF4FF47A714182704740F214001B
:10575000C2F200004169A1F1640211F5617FDCBF72
:105760004FF61842CFF6FF72426170472DE9F041C3
:1057700040F2FC0EC2F2000EDEE9023044F240219B
:10578000C0F20F01BEF8047040F2140C91FBF3F26A
:1057900091FBF0F1C2F2000CCCF80030CCF80820FC
:1057A000CCF80400CCF80C1037B1DEE90465DEE972
:1057B00006129EF8018007E04FF0000802461D46E1
:1057C00001461E46AEF800800137BCB2A4084A2C40
:1057D00088BF0027B342AEF80470B8BF1E468842A7
:1057E000B8BF0146AB42C8BF1D469042C8BF024683
:1057F000BCF81070AC1BBC42CEE90465CEF81810A2
:10580000CEF81C200ADDB8F1000F07D1DCF81840F3
:105810000134CCF8184001248EF80140511AB942E5
:105820000ADD9EF8001039B9DCF81C100131CCF803
:105830001C1001218EF80010BCF8121000229EF8F6
:1058400002408B42D8BF012222434FF0000507D00F
:105850008B42B8BF012505EA0403012B05D008E0FF
:10586000DCF820300133CCF8203082F001028EF8D1
:10587000022000229EF803308842D8BF01221A433A
:105880004FF000040ED08842B8BF012404EA0300A0
:10589000012818BFBDE8F08182F001008EF80300F6
:1058A000BDE8F081DCF824000130CCF82400F3E7F7
:1058B00080B540F2B810C2F200000021FCF73CFCB9
:1058C00040F20420C2F200000021BDE88040FCF755
:1058D00033BC000080B5FDF72DF90020FCF70EFE6B
:1058E0000020FDF743FA4FF6FF70FDF74BFABDE8D5
:1058F000804000F049BA000040F21C10C2F20000E3
:105900000178032907D840F20222C900C0F203023D
:1059100022FA01F101700020FCF7F0BD0000000048
:105920002DE9F04140F21C1840F21404C2F20008C4
:105930000020C2F2000488F80D0044F244102268EE
:10594000C4F25410C8F809004FF02030B2F57A7F45
:10595000C8F80500C8F801000ADA08F11F0050A1D4
:10596000FAF7D0FC2068B0F1FF3F1ADC28E000BF56
:1059700000EE102AB8EEC00A10EE100A01F022F86C
:105980009FED3F0B53EC102B00F06CFE02460B46D4
:1059900008F11F003CA1FAF7B5FC2068B0F1FF3F09
:1059A0000EDD6268B2F57A7F17DA08F13D0047A193
:1059B000FAF7A8FC6068B0F1FF3F30DC26E000BFDA
:1059C00047F6BC5108F11F00C0F600011322FAF798
:1059D00070FD6268B2F57A7FE7DB00EE102AB8EE60
:1059E000C00A10EE100A00F0EDFF9FED250B53ECFE
:1059F000102B00F037FE02460B4608F13D002DA1AA
:105A0000FAF780FC6068B0F1FF3F08DC47F6D05140
:105A100008F13D00C0F600011322FAF74AFD47F6EF
:105A2000A45608F15B04C0F6000620463146152254
:105A3000FAF73FFD96E88F0040F29815C2F2000594
:105A400085E80F00307D08F10101287518202F61CD
:105A5000FCF796FE08F11F014820FCF791FE08F1C3
:105A60003D016020FCF78CFE78202146FCF788FE83
:105A700090202946BDE8F041FCF782BE00BF00BF80
:105A80000000000000408F40202020202041203DC9
:105A900020252E32664B487A20202020200000004E
:105AA000202020202041203D202564487A202020ED
:105AB00020200000202020202042203D20252E32C2
:105AC000664B487A20202020200000002020202043
:105AD0002042203D202564487A20202020200000FC
